{
  "contractName": "IcoContract",
  "abi": [
    {
      "constant": true,
      "inputs": [],
      "name": "totalSupply",
      "outputs": [
        {
          "name": "",
          "type": "uint256"
        }
      ],
      "payable": false,
      "stateMutability": "view",
      "type": "function"
    },
    {
      "constant": true,
      "inputs": [],
      "name": "fundingStartTime",
      "outputs": [
        {
          "name": "",
          "type": "uint256"
        }
      ],
      "payable": false,
      "stateMutability": "view",
      "type": "function"
    },
    {
      "constant": false,
      "inputs": [],
      "name": "unpause",
      "outputs": [
        {
          "name": "",
          "type": "bool"
        }
      ],
      "payable": false,
      "stateMutability": "nonpayable",
      "type": "function"
    },
    {
      "constant": true,
      "inputs": [],
      "name": "tokenExchangeRate",
      "outputs": [
        {
          "name": "",
          "type": "uint256"
        }
      ],
      "payable": false,
      "stateMutability": "view",
      "type": "function"
    },
    {
      "constant": true,
      "inputs": [],
      "name": "paused",
      "outputs": [
        {
          "name": "",
          "type": "bool"
        }
      ],
      "payable": false,
      "stateMutability": "view",
      "type": "function"
    },
    {
      "constant": true,
      "inputs": [],
      "name": "ico",
      "outputs": [
        {
          "name": "",
          "type": "address"
        }
      ],
      "payable": false,
      "stateMutability": "view",
      "type": "function"
    },
    {
      "constant": true,
      "inputs": [],
      "name": "tokenCreationCap",
      "outputs": [
        {
          "name": "",
          "type": "uint256"
        }
      ],
      "payable": false,
      "stateMutability": "view",
      "type": "function"
    },
    {
      "constant": true,
      "inputs": [],
      "name": "fundingEndTime",
      "outputs": [
        {
          "name": "",
          "type": "uint256"
        }
      ],
      "payable": false,
      "stateMutability": "view",
      "type": "function"
    },
    {
      "constant": true,
      "inputs": [],
      "name": "icoAddress",
      "outputs": [
        {
          "name": "",
          "type": "address"
        }
      ],
      "payable": false,
      "stateMutability": "view",
      "type": "function"
    },
    {
      "constant": false,
      "inputs": [],
      "name": "pause",
      "outputs": [
        {
          "name": "",
          "type": "bool"
        }
      ],
      "payable": false,
      "stateMutability": "nonpayable",
      "type": "function"
    },
    {
      "constant": true,
      "inputs": [],
      "name": "isFinalized",
      "outputs": [
        {
          "name": "",
          "type": "bool"
        }
      ],
      "payable": false,
      "stateMutability": "view",
      "type": "function"
    },
    {
      "constant": true,
      "inputs": [],
      "name": "owner",
      "outputs": [
        {
          "name": "",
          "type": "address"
        }
      ],
      "payable": false,
      "stateMutability": "view",
      "type": "function"
    },
    {
      "constant": true,
      "inputs": [],
      "name": "ethFundDeposit",
      "outputs": [
        {
          "name": "",
          "type": "address"
        }
      ],
      "payable": false,
      "stateMutability": "view",
      "type": "function"
    },
    {
      "constant": true,
      "inputs": [],
      "name": "minContribution",
      "outputs": [
        {
          "name": "",
          "type": "uint256"
        }
      ],
      "payable": false,
      "stateMutability": "view",
      "type": "function"
    },
    {
      "constant": false,
      "inputs": [
        {
          "name": "newOwner",
          "type": "address"
        }
      ],
      "name": "transferOwnership",
      "outputs": [],
      "payable": false,
      "stateMutability": "nonpayable",
      "type": "function"
    },
    {
      "inputs": [
        {
          "name": "_ethFundDeposit",
          "type": "address"
        },
        {
          "name": "_icoAddress",
          "type": "address"
        },
        {
          "name": "_tokenCreationCap",
          "type": "uint256"
        },
        {
          "name": "_tokenExchangeRate",
          "type": "uint256"
        },
        {
          "name": "_fundingStartTime",
          "type": "uint256"
        },
        {
          "name": "_fundingEndTime",
          "type": "uint256"
        },
        {
          "name": "_minContribution",
          "type": "uint256"
        }
      ],
      "payable": false,
      "stateMutability": "nonpayable",
      "type": "constructor"
    },
    {
      "payable": true,
      "stateMutability": "payable",
      "type": "fallback"
    },
    {
      "anonymous": false,
      "inputs": [
        {
          "indexed": false,
          "name": "from",
          "type": "address"
        },
        {
          "indexed": false,
          "name": "to",
          "type": "address"
        },
        {
          "indexed": false,
          "name": "val",
          "type": "uint256"
        }
      ],
      "name": "LogCreateICO",
      "type": "event"
    },
    {
      "anonymous": false,
      "inputs": [],
      "name": "Pause",
      "type": "event"
    },
    {
      "anonymous": false,
      "inputs": [],
      "name": "Unpause",
      "type": "event"
    },
    {
      "constant": false,
      "inputs": [],
      "name": "finalize",
      "outputs": [],
      "payable": false,
      "stateMutability": "nonpayable",
      "type": "function"
    }
  ],
  "bytecode": "0x606060405260008060146101000a81548160ff021916908315150217905550341561002957600080fd5b60405160e080610ebe83398101604052808051906020019091908051906020019091908051906020019091908051906020019091908051906020019091908051906020019091908051906020019091905050336000806101000a81548173ffffffffffffffffffffffffffffffffffffffff021916908373ffffffffffffffffffffffffffffffffffffffff16021790555086600460006101000a81548173ffffffffffffffffffffffffffffffffffffffff021916908373ffffffffffffffffffffffffffffffffffffffff16021790555085600560006101000a81548173ffffffffffffffffffffffffffffffffffffffff021916908373ffffffffffffffffffffffffffffffffffffffff1602179055508460028190555083600a81905550826006819055508060088190555081600781905550600560009054906101000a900473ffffffffffffffffffffffffffffffffffffffff16600160006101000a81548173ffffffffffffffffffffffffffffffffffffffff021916908373ffffffffffffffffffffffffffffffffffffffff1602179055506000600960006101000a81548160ff02191690831515021790555050505050505050610cca806101f46000396000f3006060604052600436106100e6576000357c0100000000000000000000000000000000000000000000000000000000900463ffffffff16806318160ddd146100f25780631df935581461011b5780633f4ba83a146101445780634172d080146101715780634bb278f31461019a5780635c975abb146101af5780635d452201146101dc5780636f7920fd1461023157806374eedd461461025a578063788ce6f2146102835780638456cb59146102d85780638d4e4083146103055780638da5cb5b14610332578063a81c3bdf14610387578063aaffadf3146103dc578063f2fde38b14610405575b6100f0333461043e565b005b34156100fd57600080fd5b61010561068f565b6040518082815260200191505060405180910390f35b341561012657600080fd5b61012e610695565b6040518082815260200191505060405180910390f35b341561014f57600080fd5b61015761069b565b604051808215151515815260200191505060405180910390f35b341561017c57600080fd5b610184610760565b6040518082815260200191505060405180910390f35b34156101a557600080fd5b6101ad610766565b005b34156101ba57600080fd5b6101c2610873565b604051808215151515815260200191505060405180910390f35b34156101e757600080fd5b6101ef610886565b604051808273ffffffffffffffffffffffffffffffffffffffff1673ffffffffffffffffffffffffffffffffffffffff16815260200191505060405180910390f35b341561023c57600080fd5b6102446108ac565b6040518082815260200191505060405180910390f35b341561026557600080fd5b61026d6108b2565b6040518082815260200191505060405180910390f35b341561028e57600080fd5b6102966108b8565b604051808273ffffffffffffffffffffffffffffffffffffffff1673ffffffffffffffffffffffffffffffffffffffff16815260200191505060405180910390f35b34156102e357600080fd5b6102eb6108de565b604051808215151515815260200191505060405180910390f35b341561031057600080fd5b6103186109a5565b604051808215151515815260200191505060405180910390f35b341561033d57600080fd5b6103456109b8565b604051808273ffffffffffffffffffffffffffffffffffffffff1673ffffffffffffffffffffffffffffffffffffffff16815260200191505060405180910390f35b341561039257600080fd5b61039a6109dd565b604051808273ffffffffffffffffffffffffffffffffffffffff1673ffffffffffffffffffffffffffffffffffffffff16815260200191505060405180910390f35b34156103e757600080fd5b6103ef610a03565b6040518082815260200191505060405180910390f35b341561041057600080fd5b61043c600480803573ffffffffffffffffffffffffffffffffffffffff16906020019091905050610a09565b005b60008060008060008060149054906101000a900460ff1615151561046157600080fd5b60035460025411151561047357600080fd5b600654421015151561048457600080fd5b600754421115151561049557600080fd5b60085486101515156104a657600080fd5b600960009054906101000a900460ff161515156104c257600080fd5b6104ce86600a54610aa7565b94506104dc60035486610ada565b93508360025410156105f0576104f6600254600354610b04565b92506105028584610b04565b9150600254600381905550600a548281151561051a57fe5b0490506105278784610b22565b151561053257600080fd5b3373ffffffffffffffffffffffffffffffffffffffff166108fc829081150290604051600060405180830381858888f19350505050151561057257600080fd5b600460009054906101000a900473ffffffffffffffffffffffffffffffffffffffff1673ffffffffffffffffffffffffffffffffffffffff166108fc3073ffffffffffffffffffffffffffffffffffffffff16319081150290604051600060405180830381858888f1935050505015156105eb57600080fd5b610686565b836003819055506106018786610b22565b151561060c57600080fd5b600460009054906101000a900473ffffffffffffffffffffffffffffffffffffffff1673ffffffffffffffffffffffffffffffffffffffff166108fc3073ffffffffffffffffffffffffffffffffffffffff16319081150290604051600060405180830381858888f19350505050151561068557600080fd5b5b50505050505050565b60035481565b60065481565b60008060009054906101000a900473ffffffffffffffffffffffffffffffffffffffff1673ffffffffffffffffffffffffffffffffffffffff163373ffffffffffffffffffffffffffffffffffffffff161415156106f857600080fd5b600060149054906101000a900460ff16151561071357600080fd5b60008060146101000a81548160ff0219169083151502179055507f7805862f689e2f13df9f062ff482ad3ad112aca9e0847911ed832e158c525b3360405160405180910390a16001905090565b600a5481565b6000809054906101000a900473ffffffffffffffffffffffffffffffffffffffff1673ffffffffffffffffffffffffffffffffffffffff163373ffffffffffffffffffffffffffffffffffffffff161415156107c157600080fd5b600960009054906101000a900460ff161515156107dd57600080fd5b6001600960006101000a81548160ff021916908315150217905550600460009054906101000a900473ffffffffffffffffffffffffffffffffffffffff1673ffffffffffffffffffffffffffffffffffffffff166108fc3073ffffffffffffffffffffffffffffffffffffffff16319081150290604051600060405180830381858888f19350505050151561087157600080fd5b565b600060149054906101000a900460ff1681565b600160009054906101000a900473ffffffffffffffffffffffffffffffffffffffff1681565b60025481565b60075481565b600560009054906101000a900473ffffffffffffffffffffffffffffffffffffffff1681565b60008060009054906101000a900473ffffffffffffffffffffffffffffffffffffffff1673ffffffffffffffffffffffffffffffffffffffff163373ffffffffffffffffffffffffffffffffffffffff1614151561093b57600080fd5b600060149054906101000a900460ff1615151561095757600080fd5b6001600060146101000a81548160ff0219169083151502179055507f6985a02210a168e66602d3235cb6db0e70f92b3ba4d376a33c0f3d9434bff62560405160405180910390a16001905090565b600960009054906101000a900460ff1681565b6000809054906101000a900473ffffffffffffffffffffffffffffffffffffffff1681565b600460009054906101000a900473ffffffffffffffffffffffffffffffffffffffff1681565b60085481565b6000809054906101000a900473ffffffffffffffffffffffffffffffffffffffff1673ffffffffffffffffffffffffffffffffffffffff163373ffffffffffffffffffffffffffffffffffffffff16141515610a6457600080fd5b806000806101000a81548173ffffffffffffffffffffffffffffffffffffffff021916908373ffffffffffffffffffffffffffffffffffffffff16021790555050565b60008082840290506000841480610ac85750828482811515610ac557fe5b04145b1515610ad057fe5b8091505092915050565b6000808284019050838110158015610af25750828110155b1515610afa57fe5b8091505092915050565b600080828410151515610b1357fe5b82840390508091505092915050565b60007f6ffa1d489045d96c2691a9c911b5cd15308401f6c62def7cf8f32653d8d70b2460008484604051808473ffffffffffffffffffffffffffffffffffffffff1681526020018373ffffffffffffffffffffffffffffffffffffffff1673ffffffffffffffffffffffffffffffffffffffff168152602001828152602001935050505060405180910390a1600160009054906101000a900473ffffffffffffffffffffffffffffffffffffffff1673ffffffffffffffffffffffffffffffffffffffff16636c197ff584846000604051602001526040518363ffffffff167c0100000000000000000000000000000000000000000000000000000000028152600401808373ffffffffffffffffffffffffffffffffffffffff1673ffffffffffffffffffffffffffffffffffffffff16815260200182815260200192505050602060405180830381600087803b1515610c7b57600080fd5b6102c65a03f11515610c8c57600080fd5b505050604051805190509050929150505600a165627a7a723058206dc5928b4fd6f5eeb899fe69d4d8e49002d327cd90b4fa5f99f6450808c8f88f0029",
  "source": "pragma solidity ^0.4.18;\n\n\nimport \"./SafeMath.sol\";\nimport \"./Pausable.sol\";\nimport \"./IPMCoin.sol\";\n\n// ================= Actual Sale Contract Start ====================\ncontract IcoContract is SafeMath, Pausable {\n  IPMCoin public ico;\n\n  uint256 public tokenCreationCap;\n  uint256 public totalSupply;\n\n  address public ethFundDeposit;\n  address public icoAddress;\n\n  uint256 public fundingStartTime;\n  uint256 public fundingEndTime;\n  uint256 public minContribution;\n\n  bool public isFinalized;\n  uint256 public tokenExchangeRate;\n\n  event LogCreateICO(address from, address to, uint256 val);\n\n  function CreateICO(address to, uint256 val) internal returns (bool success) {\n    LogCreateICO(0x0, to, val);\n    return ico.sell(to, val);\n  }\n\n  function IcoContract(\n    address _ethFundDeposit,\n    address _icoAddress,\n    uint256 _tokenCreationCap,\n    uint256 _tokenExchangeRate,\n    uint256 _fundingStartTime,\n    uint256 _fundingEndTime,\n    uint256 _minContribution\n  )\n  {\n    ethFundDeposit = _ethFundDeposit;\n    icoAddress = _icoAddress;\n    tokenCreationCap = _tokenCreationCap;\n    tokenExchangeRate = _tokenExchangeRate;\n    fundingStartTime = _fundingStartTime;\n    minContribution = _minContribution;\n    fundingEndTime = _fundingEndTime;\n    ico = IPMCoin(icoAddress);\n    isFinalized = false;\n  }\n\n  function () payable {    \n    createTokens(msg.sender, msg.value);\n  }\n\n  /// @dev Accepts ether and creates new ICO tokens.\n  function createTokens(address _beneficiary, uint256 _value) internal whenNotPaused {\n    require (tokenCreationCap > totalSupply);\n    require (now >= fundingStartTime);\n    require (now <= fundingEndTime);\n    require (_value >= minContribution);\n    require (!isFinalized);\n\n    uint256 tokens = safeMult(_value, tokenExchangeRate);\n    uint256 checkedSupply = safeAdd(totalSupply, tokens);\n\n    if (tokenCreationCap < checkedSupply) {        \n      uint256 tokensToAllocate = safeSubtract(tokenCreationCap, totalSupply);\n      uint256 tokensToRefund   = safeSubtract(tokens, tokensToAllocate);\n      totalSupply = tokenCreationCap;\n      uint256 etherToRefund = tokensToRefund / tokenExchangeRate;\n\n      require(CreateICO(_beneficiary, tokensToAllocate));\n      msg.sender.transfer(etherToRefund);\n      ethFundDeposit.transfer(this.balance);\n      return;\n    }\n\n    totalSupply = checkedSupply;\n\n    require(CreateICO(_beneficiary, tokens)); \n    ethFundDeposit.transfer(this.balance);\n  }\n\n  /// @dev Ends the funding period and sends the ETH home\n  function finalize() external onlyOwner {\n    require (!isFinalized);\n    // move to operational\n    isFinalized = true;\n    ethFundDeposit.transfer(this.balance);\n  }\n}",
  "sourcePath": "/Users/wsli/Desktop/W-B-S/ipm-contract/contracts/IcoContract.sol",
  "compiler": {
    "name": "solc",
    "version": "0.4.19+commit.c4cbbb05.Emscripten.clang"
  },
  "schemaVersion": "2.0.0",
  "updatedAt": "2018-03-03T04:12:28.179Z"
}